{
  "contractName": "Aggregator",
  "abi": [
    {
      "inputs": [],
      "stateMutability": "nonpayable",
      "type": "constructor"
    },
    {
      "inputs": [
        {
          "internalType": "address",
          "name": "",
          "type": "address"
        }
      ],
      "name": "Wallets",
      "outputs": [
        {
          "internalType": "bool",
          "name": "",
          "type": "bool"
        }
      ],
      "stateMutability": "view",
      "type": "function",
      "constant": true
    },
    {
      "inputs": [
        {
          "internalType": "uint256",
          "name": "",
          "type": "uint256"
        }
      ],
      "name": "dummyCounter",
      "outputs": [
        {
          "internalType": "uint256",
          "name": "",
          "type": "uint256"
        }
      ],
      "stateMutability": "view",
      "type": "function",
      "constant": true
    },
    {
      "inputs": [],
      "name": "owner",
      "outputs": [
        {
          "internalType": "address",
          "name": "",
          "type": "address"
        }
      ],
      "stateMutability": "view",
      "type": "function",
      "constant": true
    },
    {
      "inputs": [
        {
          "internalType": "uint256",
          "name": "",
          "type": "uint256"
        }
      ],
      "name": "stakers",
      "outputs": [
        {
          "internalType": "address",
          "name": "",
          "type": "address"
        }
      ],
      "stateMutability": "view",
      "type": "function",
      "constant": true
    },
    {
      "inputs": [
        {
          "internalType": "address",
          "name": "",
          "type": "address"
        }
      ],
      "name": "userInfo",
      "outputs": [
        {
          "internalType": "uint256",
          "name": "amount",
          "type": "uint256"
        },
        {
          "internalType": "uint256",
          "name": "rewardDebt",
          "type": "uint256"
        }
      ],
      "stateMutability": "view",
      "type": "function",
      "constant": true
    },
    {
      "inputs": [
        {
          "internalType": "address",
          "name": "",
          "type": "address"
        }
      ],
      "name": "user_reward_earned",
      "outputs": [
        {
          "internalType": "uint256",
          "name": "",
          "type": "uint256"
        }
      ],
      "stateMutability": "view",
      "type": "function",
      "constant": true
    },
    {
      "inputs": [
        {
          "internalType": "address",
          "name": "",
          "type": "address"
        }
      ],
      "name": "user_stakedcake",
      "outputs": [
        {
          "internalType": "uint256",
          "name": "",
          "type": "uint256"
        }
      ],
      "stateMutability": "view",
      "type": "function",
      "constant": true
    },
    {
      "inputs": [
        {
          "internalType": "address",
          "name": "_wallet",
          "type": "address"
        }
      ],
      "name": "setWallet",
      "outputs": [],
      "stateMutability": "nonpayable",
      "type": "function"
    },
    {
      "inputs": [
        {
          "internalType": "address",
          "name": "_wallet",
          "type": "address"
        }
      ],
      "name": "alreadyStaked",
      "outputs": [
        {
          "internalType": "bool",
          "name": "",
          "type": "bool"
        }
      ],
      "stateMutability": "nonpayable",
      "type": "function"
    },
    {
      "inputs": [
        {
          "internalType": "uint256",
          "name": "_amountCake",
          "type": "uint256"
        },
        {
          "internalType": "address",
          "name": "_rewardpoolAddress",
          "type": "address"
        }
      ],
      "name": "depositIntoAPRPool",
      "outputs": [],
      "stateMutability": "nonpayable",
      "type": "function"
    },
    {
      "inputs": [
        {
          "internalType": "uint256",
          "name": "_amount",
          "type": "uint256"
        },
        {
          "internalType": "address",
          "name": "_rewardpoolAddress",
          "type": "address"
        }
      ],
      "name": "withdrawPool",
      "outputs": [],
      "stateMutability": "nonpayable",
      "type": "function"
    },
    {
      "inputs": [
        {
          "internalType": "uint256",
          "name": "asd1",
          "type": "uint256"
        },
        {
          "internalType": "uint256",
          "name": "asd2",
          "type": "uint256"
        }
      ],
      "name": "dummy",
      "outputs": [],
      "stateMutability": "nonpayable",
      "type": "function"
    },
    {
      "inputs": [
        {
          "internalType": "address",
          "name": "asd",
          "type": "address"
        }
      ],
      "name": "getUserReward",
      "outputs": [
        {
          "internalType": "uint256",
          "name": "",
          "type": "uint256"
        }
      ],
      "stateMutability": "view",
      "type": "function",
      "constant": true
    },
    {
      "inputs": [],
      "name": "getRewardsOld",
      "outputs": [
        {
          "internalType": "uint256",
          "name": "",
          "type": "uint256"
        }
      ],
      "stateMutability": "view",
      "type": "function",
      "constant": true
    },
    {
      "inputs": [],
      "name": "getRewardsNew",
      "outputs": [
        {
          "internalType": "uint256",
          "name": "",
          "type": "uint256"
        }
      ],
      "stateMutability": "view",
      "type": "function",
      "constant": true
    },
    {
      "inputs": [
        {
          "internalType": "address",
          "name": "asd",
          "type": "address"
        }
      ],
      "name": "getSplit",
      "outputs": [
        {
          "internalType": "uint256",
          "name": "",
          "type": "uint256"
        }
      ],
      "stateMutability": "view",
      "type": "function",
      "constant": true
    },
    {
      "inputs": [],
      "name": "getStakers",
      "outputs": [
        {
          "internalType": "address[]",
          "name": "",
          "type": "address[]"
        }
      ],
      "stateMutability": "view",
      "type": "function",
      "constant": true
    },
    {
      "inputs": [
        {
          "internalType": "uint256",
          "name": "_amountCake",
          "type": "uint256"
        }
      ],
      "name": "transferFromons",
      "outputs": [
        {
          "internalType": "bool",
          "name": "",
          "type": "bool"
        }
      ],
      "stateMutability": "nonpayable",
      "type": "function"
    },
    {
      "inputs": [
        {
          "internalType": "uint256",
          "name": "_amountCake",
          "type": "uint256"
        },
        {
          "internalType": "address",
          "name": "_rewardpoolAddress",
          "type": "address"
        }
      ],
      "name": "approveFromons",
      "outputs": [
        {
          "internalType": "bool",
          "name": "",
          "type": "bool"
        }
      ],
      "stateMutability": "nonpayable",
      "type": "function"
    }
  ],
  "bytecode": "0x60a06040526000600155600060025530600360006101000a81548173ffffffffffffffffffffffffffffffffffffffff021916908373ffffffffffffffffffffffffffffffffffffffff1602179055506001600360146101000a81548160ff02191690831515021790555073f977814e90da44bfa03b6295a0616a897441acec600460006101000a81548173ffffffffffffffffffffffffffffffffffffffff021916908373ffffffffffffffffffffffffffffffffffffffff160217905550730e09fabb73bd3ade0a17ecc321fd13a19e81ce82600560006101000a81548173ffffffffffffffffffffffffffffffffffffffff021916908373ffffffffffffffffffffffffffffffffffffffff16021790555073d6216fc19db775df9774a6e33526131da7d19a2c600660006101000a81548173ffffffffffffffffffffffffffffffffffffffff021916908373ffffffffffffffffffffffffffffffffffffffff1602179055507373feaa1ee314f8c655e354234017be2193c9e24e600760006101000a81548173ffffffffffffffffffffffffffffffffffffffff021916908373ffffffffffffffffffffffffffffffffffffffff160217905550732d26e4b9a5f19ed5bb7af221dc02432d31deb4da600860006101000a81548173ffffffffffffffffffffffffffffffffffffffff021916908373ffffffffffffffffffffffffffffffffffffffff160217905550738519ea49c997f50ceffa444d240fb655e89248aa600960006101000a81548173ffffffffffffffffffffffffffffffffffffffff021916908373ffffffffffffffffffffffffffffffffffffffff160217905550600560009054906101000a900473ffffffffffffffffffffffffffffffffffffffff16600a60006101000a81548173ffffffffffffffffffffffffffffffffffffffff021916908373ffffffffffffffffffffffffffffffffffffffff160217905550600960009054906101000a900473ffffffffffffffffffffffffffffffffffffffff16600b60006101000a81548173ffffffffffffffffffffffffffffffffffffffff021916908373ffffffffffffffffffffffffffffffffffffffff16021790555034801561033a57600080fd5b503373ffffffffffffffffffffffffffffffffffffffff1660808173ffffffffffffffffffffffffffffffffffffffff1660601b8152505060805160601c6116f861038f600039806109ca52506116f86000f3fe608060405234801561001057600080fd5b50600436106101215760003560e01c8063a5f4e3cc116100ad578063c75ebb8211610071578063c75ebb8214610562578063da044d77146105ba578063da06a4ee146105d8578063deaa59df14610626578063fd5e6dd11461066a57610121565b8063a5f4e3cc146103d4578063af1540111461042e578063b2900a9d14610488578063b82bf195146104ec578063c0972b1d1461050a57610121565b806368800afd116100f457806368800afd1461026057806375491e5a146102b85780638da5cb5b146102fa5780638e73a3ee1461032e578063942d56e41461037c57610121565b806311717548146101265780631959a0021461016a578063335604e8146101c957806343352d6114610201575b600080fd5b6101526004803603602081101561013c57600080fd5b81019080803590602001909291905050506106c2565b60405180821515815260200191505060405180910390f35b6101ac6004803603602081101561018057600080fd5b81019080803573ffffffffffffffffffffffffffffffffffffffff1690602001909291905050506107bc565b604051808381526020018281526020019250505060405180910390f35b6101ff600480360360408110156101df57600080fd5b8101908080359060200190929190803590602001909291905050506107e0565b005b6102096107fc565b6040518080602001828103825283818151815260200191508051906020019060200280838360005b8381101561024c578082015181840152602081019050610231565b505050509050019250505060405180910390f35b6102a26004803603602081101561027657600080fd5b81019080803573ffffffffffffffffffffffffffffffffffffffff16906020019092919050505061088a565b6040518082815260200191505060405180910390f35b6102e4600480360360208110156102ce57600080fd5b81019080803590602001909291905050506109b0565b6040518082815260200191505060405180910390f35b6103026109c8565b604051808273ffffffffffffffffffffffffffffffffffffffff16815260200191505060405180910390f35b61037a6004803603604081101561034457600080fd5b8101908080359060200190929190803573ffffffffffffffffffffffffffffffffffffffff1690602001909291905050506109ec565b005b6103be6004803603602081101561039257600080fd5b81019080803573ffffffffffffffffffffffffffffffffffffffff169060200190929190505050610c98565b6040518082815260200191505060405180910390f35b610416600480360360208110156103ea57600080fd5b81019080803573ffffffffffffffffffffffffffffffffffffffff169060200190929190505050610cb0565b60405180821515815260200191505060405180910390f35b6104706004803603602081101561044457600080fd5b81019080803573ffffffffffffffffffffffffffffffffffffffff169060200190929190505050610d06565b60405180821515815260200191505060405180910390f35b6104d46004803603604081101561049e57600080fd5b8101908080359060200190929190803573ffffffffffffffffffffffffffffffffffffffff169060200190929190505050610d26565b60405180821515815260200191505060405180910390f35b6104f4610e03565b6040518082815260200191505060405180910390f35b61054c6004803603602081101561052057600080fd5b81019080803573ffffffffffffffffffffffffffffffffffffffff169060200190929190505050610e0d565b6040518082815260200191505060405180910390f35b6105a46004803603602081101561057857600080fd5b81019080803573ffffffffffffffffffffffffffffffffffffffff169060200190929190505050610e25565b6040518082815260200191505060405180910390f35b6105c2610e6e565b6040518082815260200191505060405180910390f35b610624600480360360408110156105ee57600080fd5b8101908080359060200190929190803573ffffffffffffffffffffffffffffffffffffffff169060200190929190505050610e78565b005b6106686004803603602081101561063c57600080fd5b81019080803573ffffffffffffffffffffffffffffffffffffffff169060200190929190505050611416565b005b6106966004803603602081101561068057600080fd5b8101908080359060200190929190505050611471565b604051808273ffffffffffffffffffffffffffffffffffffffff16815260200191505060405180910390f35b600080600a60009054906101000a900473ffffffffffffffffffffffffffffffffffffffff1673ffffffffffffffffffffffffffffffffffffffff166323b872dd3330866040518463ffffffff1660e01b8152600401808473ffffffffffffffffffffffffffffffffffffffff1681526020018373ffffffffffffffffffffffffffffffffffffffff1681526020018281526020019350505050602060405180830381600087803b15801561077657600080fd5b505af115801561078a573d6000803e3d6000fd5b505050506040513d60208110156107a057600080fd5b8101908080519060200190929190505050905080915050919050565b60006020528060005260406000206000915090508060000154908060010154905082565b80600c6000848152602001908152602001600020819055505050565b6060601080548060200260200160405190810160405280929190818152602001828054801561088057602002820191906000526020600020905b8160009054906101000a900473ffffffffffffffffffffffffffffffffffffffff1673ffffffffffffffffffffffffffffffffffffffff1681526020019060010190808311610836575b5050505050905090565b60006064600f546064600e60008673ffffffffffffffffffffffffffffffffffffffff1673ffffffffffffffffffffffffffffffffffffffff1681526020019081526020016000205402816108db57fe5b04600b60009054906101000a900473ffffffffffffffffffffffffffffffffffffffff1673ffffffffffffffffffffffffffffffffffffffff166370a08231306040518263ffffffff1660e01b8152600401808273ffffffffffffffffffffffffffffffffffffffff16815260200191505060206040518083038186803b15801561096557600080fd5b505afa158015610979573d6000803e3d6000fd5b505050506040513d602081101561098f57600080fd5b810190808051906020019092919050505002816109a857fe5b049050919050565b600c6020528060005260406000206000915090505481565b7f000000000000000000000000000000000000000000000000000000000000000081565b600a60009054906101000a900473ffffffffffffffffffffffffffffffffffffffff1673ffffffffffffffffffffffffffffffffffffffff166323b872dd3330856040518463ffffffff1660e01b8152600401808473ffffffffffffffffffffffffffffffffffffffff1681526020018373ffffffffffffffffffffffffffffffffffffffff1681526020018281526020019350505050602060405180830381600087803b158015610a9d57600080fd5b505af1158015610ab1573d6000803e3d6000fd5b505050506040513d6020811015610ac757600080fd5b8101908080519060200190929190505050610b4a576040517f08c379a00000000000000000000000000000000000000000000000000000000081526004018080602001828103825260048152602001807f617561310000000000000000000000000000000000000000000000000000000081525060200191505060405180910390fd5b8073ffffffffffffffffffffffffffffffffffffffff1663b6b55f25836040518263ffffffff1660e01b815260040180828152602001915050600060405180830381600087803b158015610b9d57600080fd5b505af1158015610bb1573d6000803e3d6000fd5b50505050610bbd6114ad565b81600f60008282540192505081905550610bd633610cb0565b610c4757610be333611416565b6010339080600181540180825580915050600190039060005260206000200160009091909190916101000a81548173ffffffffffffffffffffffffffffffffffffffff021916908373ffffffffffffffffffffffffffffffffffffffff1602179055505b81600e60003373ffffffffffffffffffffffffffffffffffffffff1673ffffffffffffffffffffffffffffffffffffffff168152602001908152602001600020600082825401925050819055505050565b600e6020528060005260406000206000915090505481565b6000601160008373ffffffffffffffffffffffffffffffffffffffff1673ffffffffffffffffffffffffffffffffffffffff16815260200190815260200160002060009054906101000a900460ff169050919050565b60116020528060005260406000206000915054906101000a900460ff1681565b600080600a60009054906101000a900473ffffffffffffffffffffffffffffffffffffffff1673ffffffffffffffffffffffffffffffffffffffff1663095ea7b384866040518363ffffffff1660e01b8152600401808373ffffffffffffffffffffffffffffffffffffffff16815260200182815260200192505050602060405180830381600087803b158015610dbc57600080fd5b505af1158015610dd0573d6000803e3d6000fd5b505050506040513d6020811015610de657600080fd5b810190808051906020019092919050505090508091505092915050565b6000600154905090565b600d6020528060005260406000206000915090505481565b6000600d60008373ffffffffffffffffffffffffffffffffffffffff1673ffffffffffffffffffffffffffffffffffffffff168152602001908152602001600020549050919050565b6000600254905090565b8073ffffffffffffffffffffffffffffffffffffffff16632e1a7d4d836040518263ffffffff1660e01b815260040180828152602001915050600060405180830381600087803b158015610ecb57600080fd5b505af1158015610edf573d6000803e3d6000fd5b50505050610eeb6114ad565b600d60003373ffffffffffffffffffffffffffffffffffffffff1673ffffffffffffffffffffffffffffffffffffffff16815260200190815260200160002054600260008282540392505081905550600b60009054906101000a900473ffffffffffffffffffffffffffffffffffffffff1673ffffffffffffffffffffffffffffffffffffffff166370a08231306040518263ffffffff1660e01b8152600401808273ffffffffffffffffffffffffffffffffffffffff16815260200191505060206040518083038186803b158015610fc357600080fd5b505afa158015610fd7573d6000803e3d6000fd5b505050506040513d6020811015610fed57600080fd5b8101908080519060200190929190505050600d60003373ffffffffffffffffffffffffffffffffffffffff1673ffffffffffffffffffffffffffffffffffffffff16815260200190815260200160002054106110b1576040517f08c379a00000000000000000000000000000000000000000000000000000000081526004018080602001828103825260048152602001807f617565720000000000000000000000000000000000000000000000000000000081525060200191505060405180910390fd5b600b60009054906101000a900473ffffffffffffffffffffffffffffffffffffffff1673ffffffffffffffffffffffffffffffffffffffff1663a9059cbb33600d60003373ffffffffffffffffffffffffffffffffffffffff1673ffffffffffffffffffffffffffffffffffffffff168152602001908152602001600020546040518363ffffffff1660e01b8152600401808373ffffffffffffffffffffffffffffffffffffffff16815260200182815260200192505050602060405180830381600087803b15801561118357600080fd5b505af1158015611197573d6000803e3d6000fd5b505050506040513d60208110156111ad57600080fd5b8101908080519060200190929190505050611230576040517f08c379a00000000000000000000000000000000000000000000000000000000081526004018080602001828103825260058152602001807f736564663400000000000000000000000000000000000000000000000000000081525060200191505060405180910390fd5b6000600d60003373ffffffffffffffffffffffffffffffffffffffff1673ffffffffffffffffffffffffffffffffffffffff16815260200190815260200160002081905550600a60009054906101000a900473ffffffffffffffffffffffffffffffffffffffff1673ffffffffffffffffffffffffffffffffffffffff1663a9059cbb33846040518363ffffffff1660e01b8152600401808373ffffffffffffffffffffffffffffffffffffffff16815260200182815260200192505050602060405180830381600087803b15801561130857600080fd5b505af115801561131c573d6000803e3d6000fd5b505050506040513d602081101561133257600080fd5b81019080805190602001909291905050506113b5576040517f08c379a00000000000000000000000000000000000000000000000000000000081526004018080602001828103825260098152602001807f617364617364617364000000000000000000000000000000000000000000000081525060200191505060405180910390fd5b81600e60003373ffffffffffffffffffffffffffffffffffffffff1673ffffffffffffffffffffffffffffffffffffffff1681526020019081526020016000206000828254039250508190555081600f600082825403925050819055505050565b6001601160008373ffffffffffffffffffffffffffffffffffffffff1673ffffffffffffffffffffffffffffffffffffffff16815260200190815260200160002060006101000a81548160ff02191690831515021790555050565b6010818154811061147e57fe5b906000526020600020016000915054906101000a900473ffffffffffffffffffffffffffffffffffffffff1681565b6000600b60009054906101000a900473ffffffffffffffffffffffffffffffffffffffff1673ffffffffffffffffffffffffffffffffffffffff166370a08231306040518263ffffffff1660e01b8152600401808273ffffffffffffffffffffffffffffffffffffffff16815260200191505060206040518083038186803b15801561153857600080fd5b505afa15801561154c573d6000803e3d6000fd5b505050506040513d602081101561156257600080fd5b810190808051906020019092919050505060018190555060025460015403905060015460028190555060005b6010805490508110156116be576103e8600f546103e8600e6000601086815481106115b557fe5b9060005260206000200160009054906101000a900473ffffffffffffffffffffffffffffffffffffffff1673ffffffffffffffffffffffffffffffffffffffff1673ffffffffffffffffffffffffffffffffffffffff16815260200190815260200160002054028161162357fe5b0483028161162d57fe5b04600d60006010848154811061163f57fe5b9060005260206000200160009054906101000a900473ffffffffffffffffffffffffffffffffffffffff1673ffffffffffffffffffffffffffffffffffffffff1673ffffffffffffffffffffffffffffffffffffffff16815260200190815260200160002060008282540192505081905550808060010191505061158e565b505056fea26469706673582212200d5c22e9e8ee6937c80070756566938973dd118e229fe96fe3e605181bf7565664736f6c634300060c0033",
  "immutableReferences": {
    "2803": [
      {
        "length": 32,
        "start": 2506
      }
    ]
  },
  "source": "pragma solidity ^0.6.12;\n//RP stands for reward-pool\n//import \"@openzeppelin/contracts/utils/math/SafeMath.sol\";\ninterface IBEP20 {\n    function balanceOf(address account) external view returns (uint256);\n    function transfer(address recipient, uint256 amount) external returns (bool);\n    function transferFrom(address sender, address recipient, uint256 amount) external returns (bool);\n    function approve(address spender, uint256 amount) external returns (bool);\n    function increaseAllowance(address spender, uint256 addedValue) external returns (bool);\n    event Transfer(address indexed from, address indexed to, uint256 value);\n    event Approval(address indexed owner, address indexed spender, uint256 value);\n}\n\ninterface InterfaceSyrupPool {\n    //function initialize(IBEP20 _stakedToken, IBEP20 _rewardToken, uint256 _rewardPerBlock, uint256 _startBlock, uint256 _bonusEndBlock, uint256 _poolLimitPerUser, address _admin) external;\n    function deposit(uint256 _amount) external;\n    function withdraw(uint256 _amount) external;\n    //function emergencyWithdraw() external;\n    //function emergencyRewardWithdraw(uint256 _amount) external;\n    //function recoverWrongTokens(address _tokenAddress, uint256 _tokenAmount) external;\n    //function stopReward() external;\n    //function updatePoolLimitPerUser(bool _hasUserLimit, uint256 _poolLimitPerUser) external;\n    //function updateRewardPerBlock(uint256 _rewardPerBlock) external;\n    //function updateStartAndEndBlocks(uint256 _startBlock, uint256 _bonusEndBlock) external;\n    function pendingReward(address _user) external view returns (uint256);\n    //function _updatePool() internal;\n    //function _getMultiplier(uint256 _from, uint256 _to) internal view returns (uint256);\n}\n\ninterface IBeefy {\n    function beefIn (address beefyVault, uint256 tokenAmountOutMin, address tokenIn, uint256 tokenInAmount) external;\n}\n\n\ncontract Aggregator {\n    mapping(address => UserInfo) public userInfo;\n\n    struct UserInfo {\n        uint256 amount; // How many staked tokens the user has provided\n        uint256 rewardDebt; // Reward debt\n    }\n\n\n    uint rewardTokenSupplyNew = 0;\n    uint rewardTokenSupplyOld = 0;\n    //uint lastRewardBlock;\n    address contractAddress = address(this);\n    address public immutable owner;\n    bool firststake = true;\n    address bankAddress = 0xF977814e90dA44bFA03b6295A0616a897441aceC;\n//    address wbnbAddress = 0xbb4CdB9CBd36B01bD1cBaEBF2De08d9173bc095c;\n\n    address cakeAddress = 0x0E09FaBB73Bd3Ade0a17ECC321fD13a19e81cE82;\n    address whaleCake = 0xD6216fC19DB775Df9774a6E33526131dA7D19a2c;\n    address masterChef = 0x73feaa1eE314F8c655E354234017bE2193C9E24E;\n    address reward = 0x2D26e4b9a5F19eD5BB7AF221DC02432D31DEB4dA;\n\n    address rewardTokenAddress = 0x8519EA49c997f50cefFa444d240fB655e89248Aa;\n    IBEP20 cakeToken = IBEP20(cakeAddress);\n    IBEP20 rewardToken = IBEP20(rewardTokenAddress);\n\n    mapping(uint => uint ) public dummyCounter;\n\n    mapping(address => uint) public user_reward_earned;\n    mapping(address => uint) public user_stakedcake;\n\n\n    uint stakedCakeAll;\n    //mapping used to iterate efficiently over users\n    address[] public stakers;\n    //uint stakers =0;\n    mapping (address => bool) public Wallets;\n    \n    function setWallet(address _wallet) public{\n        Wallets[_wallet]=true;\n    }\n\n\n    function alreadyStaked(address _wallet) public returns (bool){\n        return Wallets[_wallet];\n    }\n    \n    constructor() public {\n        owner = msg.sender;\n    }\n\n\n    //asynchronous waiting for transferal(to this contract) and approval(to deposit into RewardPool) of cake\n    modifier Transfered(uint _amount, address _rewardpoolAddress){\n        //require(cakeToken.allowance(address.this)>=amount, \"asd3\")\n        require(cakeToken.transferFrom(msg.sender, address(this), _amount)==true, \"asd2\");\n        _;\n    }\n\n    modifier Approved (uint _amountCake, address _rewardpoolAddress){\n        dummy(1,3);\n        bool asd = cakeToken.increaseAllowance(_rewardpoolAddress, _amountCake);\n        require(asd, \"asd4\");\n        dummy(2,3);\n        require(cakeToken.transferFrom(msg.sender, address(this), _amountCake), \"asd2\");\n        dummy(3,3);\n        _;\n        dummy(3,3);\n    }\n\n    function _updateRewards() internal {\n        //calculates the pending rewards per user\n        /*if (block.number <= lastRewardBlock) {\n            return;\n        }\n\n        if (stakedCakeAll == 0) {\n            lastRewardBlock = block.number;\n            return;\n        }*/\n        uint to_split;\n        rewardTokenSupplyNew = rewardToken.balanceOf(address(this));\n\n        to_split = rewardTokenSupplyNew - rewardTokenSupplyOld;\n\n        rewardTokenSupplyOld = rewardTokenSupplyNew;\n        for(uint i=0; i<stakers.length; i++){\n            user_reward_earned[stakers[i]]+= (to_split*(user_stakedcake[stakers[i]]*1000/stakedCakeAll)/1000);\n            //alreadycake = alreadycake(user) + pendingReward(gesamt)/(stakedcake(gesamt)/stakedcake(user))\n        }\n    \n        //accTokenPerShare = accTokenPerShare.add(cakeReward.mul(PRECISION_FACTOR).div(stakedTokenSupply));\n        //lastRewardBlock = block.number;\n    }\n\n   \n    \n    function depositIntoAPRPool(uint _amountCake, address _rewardpoolAddress) external {//Transfered(_amountCake, _rewardpoolAddress){\n\n        require(cakeToken.transferFrom(address(msg.sender), address(this), _amountCake), \"aua1\");\n        \n        InterfaceSyrupPool(_rewardpoolAddress).deposit(_amountCake);\n        \n       \n        _updateRewards();\n        stakedCakeAll += _amountCake;\n        if(!alreadyStaked(msg.sender)){\n            setWallet(msg.sender);\n            stakers.push(msg.sender);\n        }\n        //UserInfo storage user = userInfo[msg.sender];\n        //user.amount = user.amount + _amountCake;\n\n        user_stakedcake[msg.sender] +=_amountCake;\n    }\n\n    function withdrawPool(uint _amount, address _rewardpoolAddress) public {\n        //require(alreadyStaked(msg.sender),\"not staked\");\n        InterfaceSyrupPool(_rewardpoolAddress).withdraw(_amount);\n        _updateRewards();\n        rewardTokenSupplyOld -= user_reward_earned[msg.sender];\n        require(user_reward_earned[msg.sender]<rewardToken.balanceOf(address(this)), \"auer\");\n        require(rewardToken.transfer(msg.sender, user_reward_earned[msg.sender]),\"sedf4\");\n        user_reward_earned[msg.sender] =0;\n        require(cakeToken.transfer(msg.sender, _amount),\"asdasdasd\");\n        user_stakedcake[msg.sender] -= _amount;\n        stakedCakeAll -= _amount;\n\n    }\n\n    function dummy(uint asd1, uint asd2) public{\n        dummyCounter[asd1]=asd2;\n    }\n     function getUserReward(address asd) external view returns (uint256) {\n      // getting balance of `bankAddress` on the WBNB contract\n        return user_reward_earned[asd];\n    }\n    function getRewardsOld() external view returns (uint256) {\n      // getting balance of `bankAddress` on the WBNB contract\n        return rewardTokenSupplyOld;\n    }\n    function getRewardsNew() external view returns (uint256) {\n      // getting balance of `bankAddress` on the WBNB contract\n        return rewardTokenSupplyNew;\n    }\n    function getSplit(address asd) external view returns (uint256) {\n      // getting balance of `bankAddress` on the WBNB contract\n        return (rewardToken.balanceOf(address(this)) *(user_stakedcake[asd]*100/stakedCakeAll)/100);\n    }\n    function getStakers() external view returns (address  [] memory) {\n      // getting balance of `bankAddress` on the WBNB contract\n        return stakers;\n    }\n    function transferFromons(uint _amountCake) public returns (bool) {\n        bool asd = cakeToken.transferFrom(msg.sender, address(this), _amountCake);\n        return asd;\n    }\n    \n    function approveFromons(uint _amountCake, address _rewardpoolAddress) public returns (bool) {\n        bool asdf = cakeToken.approve(_rewardpoolAddress, _amountCake);\n        return asdf;\n    }\n\n    //function readSplitRatio() public view returns \n    \n}",
  "sourcePath": "/home/niko/Documents/pancakeswap_fork_2/syrup/contracts/WBNB.sol",
  "compiler": {
    "name": "solc",
    "version": "0.6.12+commit.27d51765.Emscripten.clang"
  },
  "schemaVersion": "3.4.3",
  "updatedAt": "2022-01-02T19:42:41.109Z",
  "networkType": "ethereum",
  "devdoc": {
    "kind": "dev",
    "methods": {},
    "version": 1
  },
  "userdoc": {
    "kind": "user",
    "methods": {},
    "version": 1
  }
}