{
  "contractName": "StratManagerCake",
  "abi": [
    {
      "inputs": [
        {
          "internalType": "address",
          "name": "_keeper",
          "type": "address"
        },
        {
          "internalType": "address",
          "name": "_unirouter",
          "type": "address"
        },
        {
          "internalType": "address",
          "name": "_vault",
          "type": "address"
        },
        {
          "internalType": "address",
          "name": "_beefyFeeRecipient",
          "type": "address"
        }
      ],
      "stateMutability": "nonpayable",
      "type": "constructor"
    },
    {
      "anonymous": false,
      "inputs": [
        {
          "indexed": true,
          "internalType": "address",
          "name": "previousOwner",
          "type": "address"
        },
        {
          "indexed": true,
          "internalType": "address",
          "name": "newOwner",
          "type": "address"
        }
      ],
      "name": "OwnershipTransferred",
      "type": "event"
    },
    {
      "anonymous": false,
      "inputs": [
        {
          "indexed": false,
          "internalType": "address",
          "name": "account",
          "type": "address"
        }
      ],
      "name": "Paused",
      "type": "event"
    },
    {
      "anonymous": false,
      "inputs": [
        {
          "indexed": false,
          "internalType": "address",
          "name": "account",
          "type": "address"
        }
      ],
      "name": "Unpaused",
      "type": "event"
    },
    {
      "inputs": [],
      "name": "beefyFeeRecipient",
      "outputs": [
        {
          "internalType": "address",
          "name": "",
          "type": "address"
        }
      ],
      "stateMutability": "view",
      "type": "function"
    },
    {
      "inputs": [],
      "name": "keeper",
      "outputs": [
        {
          "internalType": "address",
          "name": "",
          "type": "address"
        }
      ],
      "stateMutability": "view",
      "type": "function"
    },
    {
      "inputs": [],
      "name": "owner",
      "outputs": [
        {
          "internalType": "address",
          "name": "",
          "type": "address"
        }
      ],
      "stateMutability": "view",
      "type": "function"
    },
    {
      "inputs": [],
      "name": "paused",
      "outputs": [
        {
          "internalType": "bool",
          "name": "",
          "type": "bool"
        }
      ],
      "stateMutability": "view",
      "type": "function"
    },
    {
      "inputs": [],
      "name": "renounceOwnership",
      "outputs": [],
      "stateMutability": "nonpayable",
      "type": "function"
    },
    {
      "inputs": [
        {
          "internalType": "address",
          "name": "newOwner",
          "type": "address"
        }
      ],
      "name": "transferOwnership",
      "outputs": [],
      "stateMutability": "nonpayable",
      "type": "function"
    },
    {
      "inputs": [],
      "name": "unirouter",
      "outputs": [
        {
          "internalType": "address",
          "name": "",
          "type": "address"
        }
      ],
      "stateMutability": "view",
      "type": "function"
    },
    {
      "inputs": [],
      "name": "vault",
      "outputs": [
        {
          "internalType": "address",
          "name": "",
          "type": "address"
        }
      ],
      "stateMutability": "view",
      "type": "function"
    },
    {
      "inputs": [
        {
          "internalType": "address",
          "name": "_keeper",
          "type": "address"
        }
      ],
      "name": "setKeeper",
      "outputs": [],
      "stateMutability": "nonpayable",
      "type": "function"
    },
    {
      "inputs": [
        {
          "internalType": "address",
          "name": "_unirouter",
          "type": "address"
        }
      ],
      "name": "setUnirouter",
      "outputs": [],
      "stateMutability": "nonpayable",
      "type": "function"
    },
    {
      "inputs": [
        {
          "internalType": "address",
          "name": "_vault",
          "type": "address"
        }
      ],
      "name": "setVault",
      "outputs": [],
      "stateMutability": "nonpayable",
      "type": "function"
    },
    {
      "inputs": [
        {
          "internalType": "address",
          "name": "_beefyFeeRecipient",
          "type": "address"
        }
      ],
      "name": "setBeefyFeeRecipient",
      "outputs": [],
      "stateMutability": "nonpayable",
      "type": "function"
    },
    {
      "inputs": [],
      "name": "beforeDeposit",
      "outputs": [],
      "stateMutability": "nonpayable",
      "type": "function"
    }
  ],
  "bytecode": "0x608060405234801561001057600080fd5b50604051610e67380380610e678339818101604052608081101561003357600080fd5b8101908080519060200190929190805190602001909291908051906020019092919080519060200190929190505050600061007261023760201b60201c565b9050806000806101000a81548173ffffffffffffffffffffffffffffffffffffffff021916908373ffffffffffffffffffffffffffffffffffffffff1602179055508073ffffffffffffffffffffffffffffffffffffffff16600073ffffffffffffffffffffffffffffffffffffffff167f8be0079c531659141344cd1fd0a4f28419497f9722a3daafe3b4186f6b6457e060405160405180910390a35060008060146101000a81548160ff02191690831515021790555083600160006101000a81548173ffffffffffffffffffffffffffffffffffffffff021916908373ffffffffffffffffffffffffffffffffffffffff16021790555082600260006101000a81548173ffffffffffffffffffffffffffffffffffffffff021916908373ffffffffffffffffffffffffffffffffffffffff16021790555081600360006101000a81548173ffffffffffffffffffffffffffffffffffffffff021916908373ffffffffffffffffffffffffffffffffffffffff16021790555080600460006101000a81548173ffffffffffffffffffffffffffffffffffffffff021916908373ffffffffffffffffffffffffffffffffffffffff1602179055505050505061023f565b600033905090565b610c198061024e6000396000f3fe608060405234801561001057600080fd5b50600436106100cf5760003560e01c80638da5cb5b1161008c578063aced166111610066578063aced166114610270578063d92f3d73146102a4578063f2fde38b146102e8578063fbfa77cf1461032c576100cf565b80638da5cb5b146101c45780638e145459146101f8578063a68833e51461022c576100cf565b8063257ae0de146100d4578063573fef0a146101085780635c975abb146101125780636817031b14610132578063715018a614610176578063748747e614610180575b600080fd5b6100dc610360565b604051808273ffffffffffffffffffffffffffffffffffffffff16815260200191505060405180910390f35b610110610386565b005b61011a610388565b60405180821515815260200191505060405180910390f35b6101746004803603602081101561014857600080fd5b81019080803573ffffffffffffffffffffffffffffffffffffffff16906020019092919050505061039e565b005b61017e610491565b005b6101c26004803603602081101561019657600080fd5b81019080803573ffffffffffffffffffffffffffffffffffffffff1690602001909291905050506105fe565b005b6101cc610742565b604051808273ffffffffffffffffffffffffffffffffffffffff16815260200191505060405180910390f35b61020061076b565b604051808273ffffffffffffffffffffffffffffffffffffffff16815260200191505060405180910390f35b61026e6004803603602081101561024257600080fd5b81019080803573ffffffffffffffffffffffffffffffffffffffff169060200190929190505050610791565b005b610278610884565b604051808273ffffffffffffffffffffffffffffffffffffffff16815260200191505060405180910390f35b6102e6600480360360208110156102ba57600080fd5b81019080803573ffffffffffffffffffffffffffffffffffffffff1690602001909291905050506108aa565b005b61032a600480360360208110156102fe57600080fd5b81019080803573ffffffffffffffffffffffffffffffffffffffff16906020019092919050505061099d565b005b610334610b8f565b604051808273ffffffffffffffffffffffffffffffffffffffff16815260200191505060405180910390f35b600260009054906101000a900473ffffffffffffffffffffffffffffffffffffffff1681565b565b60008060149054906101000a900460ff16905090565b6103a6610bb5565b73ffffffffffffffffffffffffffffffffffffffff166103c4610742565b73ffffffffffffffffffffffffffffffffffffffff161461044d576040517f08c379a00000000000000000000000000000000000000000000000000000000081526004018080602001828103825260208152602001807f4f776e61626c653a2063616c6c6572206973206e6f7420746865206f776e657281525060200191505060405180910390fd5b80600360006101000a81548173ffffffffffffffffffffffffffffffffffffffff021916908373ffffffffffffffffffffffffffffffffffffffff16021790555050565b610499610bb5565b73ffffffffffffffffffffffffffffffffffffffff166104b7610742565b73ffffffffffffffffffffffffffffffffffffffff1614610540576040517f08c379a00000000000000000000000000000000000000000000000000000000081526004018080602001828103825260208152602001807f4f776e61626c653a2063616c6c6572206973206e6f7420746865206f776e657281525060200191505060405180910390fd5b600073ffffffffffffffffffffffffffffffffffffffff1660008054906101000a900473ffffffffffffffffffffffffffffffffffffffff1673ffffffffffffffffffffffffffffffffffffffff167f8be0079c531659141344cd1fd0a4f28419497f9722a3daafe3b4186f6b6457e060405160405180910390a360008060006101000a81548173ffffffffffffffffffffffffffffffffffffffff021916908373ffffffffffffffffffffffffffffffffffffffff160217905550565b610606610742565b73ffffffffffffffffffffffffffffffffffffffff163373ffffffffffffffffffffffffffffffffffffffff16148061068c5750600160009054906101000a900473ffffffffffffffffffffffffffffffffffffffff1673ffffffffffffffffffffffffffffffffffffffff163373ffffffffffffffffffffffffffffffffffffffff16145b6106fe576040517f08c379a00000000000000000000000000000000000000000000000000000000081526004018080602001828103825260088152602001807f216d616e6167657200000000000000000000000000000000000000000000000081525060200191505060405180910390fd5b80600160006101000a81548173ffffffffffffffffffffffffffffffffffffffff021916908373ffffffffffffffffffffffffffffffffffffffff16021790555050565b60008060009054906101000a900473ffffffffffffffffffffffffffffffffffffffff16905090565b600460009054906101000a900473ffffffffffffffffffffffffffffffffffffffff1681565b610799610bb5565b73ffffffffffffffffffffffffffffffffffffffff166107b7610742565b73ffffffffffffffffffffffffffffffffffffffff1614610840576040517f08c379a00000000000000000000000000000000000000000000000000000000081526004018080602001828103825260208152602001807f4f776e61626c653a2063616c6c6572206973206e6f7420746865206f776e657281525060200191505060405180910390fd5b80600460006101000a81548173ffffffffffffffffffffffffffffffffffffffff021916908373ffffffffffffffffffffffffffffffffffffffff16021790555050565b600160009054906101000a900473ffffffffffffffffffffffffffffffffffffffff1681565b6108b2610bb5565b73ffffffffffffffffffffffffffffffffffffffff166108d0610742565b73ffffffffffffffffffffffffffffffffffffffff1614610959576040517f08c379a00000000000000000000000000000000000000000000000000000000081526004018080602001828103825260208152602001807f4f776e61626c653a2063616c6c6572206973206e6f7420746865206f776e657281525060200191505060405180910390fd5b80600260006101000a81548173ffffffffffffffffffffffffffffffffffffffff021916908373ffffffffffffffffffffffffffffffffffffffff16021790555050565b6109a5610bb5565b73ffffffffffffffffffffffffffffffffffffffff166109c3610742565b73ffffffffffffffffffffffffffffffffffffffff1614610a4c576040517f08c379a00000000000000000000000000000000000000000000000000000000081526004018080602001828103825260208152602001807f4f776e61626c653a2063616c6c6572206973206e6f7420746865206f776e657281525060200191505060405180910390fd5b600073ffffffffffffffffffffffffffffffffffffffff168173ffffffffffffffffffffffffffffffffffffffff161415610ad2576040517f08c379a0000000000000000000000000000000000000000000000000000000008152600401808060200182810382526026815260200180610bbe6026913960400191505060405180910390fd5b8073ffffffffffffffffffffffffffffffffffffffff1660008054906101000a900473ffffffffffffffffffffffffffffffffffffffff1673ffffffffffffffffffffffffffffffffffffffff167f8be0079c531659141344cd1fd0a4f28419497f9722a3daafe3b4186f6b6457e060405160405180910390a3806000806101000a81548173ffffffffffffffffffffffffffffffffffffffff021916908373ffffffffffffffffffffffffffffffffffffffff16021790555050565b600360009054906101000a900473ffffffffffffffffffffffffffffffffffffffff1681565b60003390509056fe4f776e61626c653a206e6577206f776e657220697320746865207a65726f2061646472657373a2646970667358221220b60a0049269765e72c4a4830bff2938fa3aefb6a808ff000e12fab9901aca49964736f6c634300060c0033",
  "immutableReferences": {},
  "source": "// SPDX-License-Identifier: MIT\n\n\npragma solidity ^0.6.12;\n\nimport \"@openzeppelin/contracts/access/Ownable.sol\";\nimport \"@openzeppelin/contracts/utils/Pausable.sol\";\n\ncontract StratManagerCake is Ownable, Pausable {\n    /**\n     * @dev Beefy Contracts:\n     * {keeper} - Address to manage a few lower risk features of the strat\n     * {vault} - Address of the vault that controls the strategy's funds.\n     * {unirouter} - Address of exchange to execute swaps.\n     */\n    address public keeper;\n    address public unirouter;\n    address public vault;\n    address public beefyFeeRecipient;\n\n    /**\n     * @dev Initializes the base strategy.\n     * @param _keeper address to use as alternative owner.\n     * @param _unirouter router to use for swaps\n     * @param _vault address of parent vault.\n     * @param _beefyFeeRecipient address where to send Beefy's fees.\n     */\n    constructor(\n        address _keeper,\n        address _unirouter,\n        address _vault,\n        address _beefyFeeRecipient\n    ) public {\n        keeper = _keeper;\n        unirouter = _unirouter;\n        vault = _vault;\n        beefyFeeRecipient = _beefyFeeRecipient;\n    }\n\n    // checks that caller is either owner or keeper.\n    modifier onlyManager() {\n        require(msg.sender == owner() || msg.sender == keeper, \"!manager\");\n        _;\n    }\n\n    /**\n     * @dev Updates address of the strat keeper.\n     * @param _keeper new keeper address.\n     */\n    function setKeeper(address _keeper) external onlyManager {\n        keeper = _keeper;\n    }\n\n    /**\n     * @dev Updates router that will be used for swaps.\n     * @param _unirouter new unirouter address.\n     */\n    function setUnirouter(address _unirouter) external onlyOwner {\n        unirouter = _unirouter;\n    }\n\n    /**\n     * @dev Updates parent vault.\n     * @param _vault new vault address.\n     */\n    function setVault(address _vault) external onlyOwner {\n        vault = _vault;\n    }\n\n    /**\n     * @dev Updates beefy fee recipient.\n     * @param _beefyFeeRecipient new beefy fee recipient address.\n     */\n    function setBeefyFeeRecipient(address _beefyFeeRecipient) external onlyOwner {\n        beefyFeeRecipient = _beefyFeeRecipient;\n    }\n\n    /**\n     * @dev Function to synchronize balances before new user deposit.\n     * Can be overridden in the strategy.\n     */\n    function beforeDeposit() external virtual {}\n}\n\n\npragma solidity ^0.6.12;\n\nabstract contract FeeManagerCake is StratManagerCake {\n    uint constant public MAX_FEE = 1000;\n    uint constant public MAX_CALL_FEE = 111;\n\n    uint constant public WITHDRAWAL_FEE_CAP = 50;\n    uint constant public WITHDRAWAL_MAX = 10000;\n\n    uint public withdrawalFee = 0;\n\n    uint public callFee = 0;\n    uint public beefyFee = MAX_FEE - callFee;\n\n    function setCallFee(uint256 _fee) external onlyManager {\n        require(_fee <= MAX_CALL_FEE, \"!cap\");\n        \n        callFee = _fee;\n        beefyFee = MAX_FEE - callFee;\n    }\n\n    function setWithdrawalFee(uint256 _fee) external onlyManager {\n        require(_fee <= WITHDRAWAL_FEE_CAP, \"!cap\");\n\n        withdrawalFee = _fee;\n    }\n}\n\n\npragma solidity ^0.6.0;\n\ninterface IUniswapRouter {\n    function factory() external pure returns (address);\n    function WBNB() external pure returns (address);\n\n    function addLiquidity(\n        address tokenA,\n        address tokenB,\n        uint amountADesired,\n        uint amountBDesired,\n        uint amountAMin,\n        uint amountBMin,\n        address to,\n        uint deadline\n    ) external returns (uint amountA, uint amountB, uint liquidity);\n    function addLiquidityBNB(\n        address token,\n        uint amountTokenDesired,\n        uint amountTokenMin,\n        uint amountBNBMin,\n        address to,\n        uint deadline\n    ) external payable returns (uint amountToken, uint amountBNB, uint liquidity);\n    function removeLiquidity(\n        address tokenA,\n        address tokenB,\n        uint liquidity,\n        uint amountAMin,\n        uint amountBMin,\n        address to,\n        uint deadline\n    ) external returns (uint amountA, uint amountB);\n    function removeLiquidityBNB(\n        address token,\n        uint liquidity,\n        uint amountTokenMin,\n        uint amountBNBMin,\n        address to,\n        uint deadline\n    ) external returns (uint amountToken, uint amountBNB);\n    function removeLiquidityWithPermit(\n        address tokenA,\n        address tokenB,\n        uint liquidity,\n        uint amountAMin,\n        uint amountBMin,\n        address to,\n        uint deadline,\n        bool approveMax, uint8 v, bytes32 r, bytes32 s\n    ) external returns (uint amountA, uint amountB);\n    function removeLiquidityBNBWithPermit(\n        address token,\n        uint liquidity,\n        uint amountTokenMin,\n        uint amountBNBMin,\n        address to,\n        uint deadline,\n        bool approveMax, uint8 v, bytes32 r, bytes32 s\n    ) external returns (uint amountToken, uint amountBNB);\n    function removeLiquidityBNBSupportingFeeOnTransferTokens(\n        address token,\n        uint liquidity,\n        uint amountTokenMin,\n        uint amountBNBMin,\n        address to,\n        uint deadline\n    ) external returns (uint amountBNB);\n    function removeLiquidityBNBWithPermitSupportingFeeOnTransferTokens(\n        address token,\n        uint liquidity,\n        uint amountTokenMin,\n        uint amountBNBMin,\n        address to,\n        uint deadline,\n        bool approveMax, uint8 v, bytes32 r, bytes32 s\n    ) external returns (uint amountBNB);\n    function swapExactTokensForTokens(\n        uint amountIn,\n        uint amountOutMin,\n        address[] calldata path,\n        address to,\n        uint deadline\n    ) external returns (uint[] memory amounts);\n    function swapTokensForExactTokens(\n        uint amountOut,\n        uint amountInMax,\n        address[] calldata path,\n        address to,\n        uint deadline\n    ) external returns (uint[] memory amounts);\n    function swapExactTokensForTokensSupportingFeeOnTransferTokens(\n        uint amountIn,\n        uint amountOutMin,\n        address[] calldata path,\n        address to,\n        uint deadline\n    ) external;\n    function swapExactBNBForTokensSupportingFeeOnTransferTokens(\n        uint amountOutMin,\n        address[] calldata path,\n        address to,\n        uint deadline\n    ) external payable;\n    function swapExactTokensForBNBSupportingFeeOnTransferTokens(\n        uint amountIn,\n        uint amountOutMin,\n        address[] calldata path,\n        address to,\n        uint deadline\n    ) external;\n    function swapExactBNBForTokens(uint amountOutMin, address[] calldata path, address to, uint deadline)\n        external\n        payable\n        returns (uint[] memory amounts);\n    function swapTokensForExactBNB(uint amountOut, uint amountInMax, address[] calldata path, address to, uint deadline)\n        external\n        returns (uint[] memory amounts);\n    function swapExactTokensForBNB(uint amountIn, uint amountOutMin, address[] calldata path, address to, uint deadline)\n        external\n        returns (uint[] memory amounts);\n    function swapBNBForExactTokens(uint amountOut, address[] calldata path, address to, uint deadline)\n        external\n        payable\n        returns (uint[] memory amounts);\n\n    function quote(uint amountA, uint reserveA, uint reserveB) external pure returns (uint amountB);\n    function getAmountOut(uint amountIn, uint reserveIn, uint reserveOut) external pure returns (uint amountOut);\n    function getAmountIn(uint amountOut, uint reserveIn, uint reserveOut) external pure returns (uint amountIn);\n    function getAmountsOut(uint amountIn, address[] calldata path) external view returns (uint[] memory amounts);\n    function getAmountsIn(uint amountOut, address[] calldata path) external view returns (uint[] memory amounts);\n}\n\n\npragma solidity ^0.6.0;\n\ninterface IUniswapV2Pair {\n    function factory() external view returns (address);\n    function token0() external view returns (address);\n    function token1() external view returns (address);\n    function burn(address to) external returns (uint amount0, uint amount1);\n    function getReserves() external view returns (uint112 reserve0, uint112 reserve1, uint32 blockTimestampLast);\n}\n\npragma solidity ^0.6.0;\n\ninterface IMasterChef {\n    function deposit(uint256 _pid, uint256 _amount) external;\n    function withdraw(uint256 _pid, uint256 _amount) external;\n    function enterStaking(uint256 _amount) external;\n    function leaveStaking(uint256 _amount) external;\n    function userInfo(uint256 _pid, address _user) external view returns (uint256, uint256);\n    function emergencyWithdraw(uint256 _pid) external;\n}\n\npragma solidity ^0.6.0;\n\nimport \"@openzeppelin/contracts/math/SafeMath.sol\";\nimport \"@openzeppelin/contracts/token/ERC20/ERC20.sol\";\nimport \"@openzeppelin/contracts/token/ERC20/SafeERC20.sol\";\n\ncontract StrategyCakeV2 is StratManagerCake, FeeManagerCake {\n    using SafeERC20 for IERC20;\n    using SafeMath for uint256;\n\n    // Tokens used\n    address constant public wrapped = address(0xbb4CdB9CBd36B01bD1cBaEBF2De08d9173bc095c);\n    address constant public want = address(0x0E09FaBB73Bd3Ade0a17ECC321fD13a19e81cE82);\n\n    // Third party contracts\n    address constant public masterchef = address(0x73feaa1eE314F8c655E354234017bE2193C9E24E);\n\n    // Routes\n    address[] public wantToWrappedRoute = [want, wrapped];\n\n    /**\n     * @dev Event that is fired each time someone harvests the strat.\n     */\n    event StratHarvest(address indexed harvester, uint256 indexed timestamp);\n\n    constructor(\n        address _vault,\n        address _unirouter,\n        address _keeper,\n        address _beefyFeeRecipient\n    ) StratManagerCake(_keeper, _unirouter, _vault, _beefyFeeRecipient) public {\n        _giveAllowances();\n    }\n\n    // puts the funds to work\n    function deposit() public whenNotPaused {\n        uint256 wantBal = IERC20(want).balanceOf(address(this));\n\n        if (wantBal > 0) {\n            IMasterChef(masterchef).enterStaking(wantBal);\n        }\n    }\n\n    function withdraw(uint256 _amount) external {\n        require(msg.sender == vault, \"!vault\");\n\n        uint256 wantBal = IERC20(want).balanceOf(address(this));\n\n        if (wantBal < _amount) {\n            IMasterChef(masterchef).leaveStaking(_amount.sub(wantBal));\n            wantBal = IERC20(want).balanceOf(address(this));\n        }\n\n        if (wantBal > _amount) {\n            wantBal = _amount;\n        }\n\n        if (tx.origin == owner() || paused()) {\n            IERC20(want).safeTransfer(vault, wantBal);\n        } else {\n            uint256 withdrawalFeeAmount = wantBal.mul(withdrawalFee).div(WITHDRAWAL_MAX);\n            IERC20(want).safeTransfer(vault, wantBal.sub(withdrawalFeeAmount));\n        }\n    }\n\n    function beforeDeposit() external override {\n        harvest();\n    }\n\n    // compounds earnings and charges performance fee\n    function harvest() public whenNotPaused {\n        require(tx.origin == msg.sender || msg.sender == vault, \"!contract\");\n        IMasterChef(masterchef).leaveStaking(0);\n        uint256 wantBal = IERC20(want).balanceOf(address(this));\n        if (wantBal > 0) {\n            chargeFees();\n            deposit();\n            emit StratHarvest(msg.sender, block.timestamp);\n        }\n    }\n\n    // performance fees\n    function chargeFees() internal {\n        uint256 toWrapped = IERC20(want).balanceOf(address(this)).mul(10).div(1000);\n        IUniswapRouter(unirouter).swapExactTokensForTokens(toWrapped, 0, wantToWrappedRoute, address(this), now);\n\n        uint256 wrappedBal = IERC20(wrapped).balanceOf(address(this));\n\n        uint256 callFeeAmount = wrappedBal.mul(callFee).div(MAX_FEE);\n        IERC20(wrapped).safeTransfer(tx.origin, callFeeAmount);\n\n        uint256 beefyFeeAmount = wrappedBal.mul(beefyFee).div(MAX_FEE);\n        IERC20(wrapped).safeTransfer(beefyFeeRecipient, beefyFeeAmount);\n    }\n\n    // calculate the total underlaying 'want' held by the strat.\n    function balanceOf() public view returns (uint256) {\n        return balanceOfWant().add(balanceOfPool());\n    }\n\n    // it calculates how much 'want' this contract holds.\n    function balanceOfWant() public view returns (uint256) {\n        return IERC20(want).balanceOf(address(this));\n    }\n\n    // it calculates how much 'want' the strategy has working in the farm.\n    function balanceOfPool() public view returns (uint256) {\n        (uint256 _amount, ) = IMasterChef(masterchef).userInfo(0, address(this));\n        return _amount;\n    }\n\n    // called as part of strat migration. Sends all the available funds back to the vault.\n    function retireStrat() external {\n        require(msg.sender == vault, \"!vault\");\n\n        IMasterChef(masterchef).emergencyWithdraw(0);\n\n        uint256 wantBal = IERC20(want).balanceOf(address(this));\n        IERC20(want).transfer(vault, wantBal);\n    }\n\n    // pauses deposits and withdraws all funds from third party systems.\n    function panic() public onlyManager {\n        pause();\n        IMasterChef(masterchef).emergencyWithdraw(0);\n    }\n\n    function pause() public onlyManager {\n        _pause();\n\n        _removeAllowances();\n    }\n\n    function unpause() external onlyManager {\n        _unpause();\n\n        _giveAllowances();\n\n        deposit();\n    }\n\n    function _giveAllowances() internal {\n        IERC20(want).safeApprove(masterchef, uint256(-1));\n        IERC20(want).safeApprove(unirouter, uint256(-1));\n    }\n\n    function _removeAllowances() internal {\n        IERC20(want).safeApprove(masterchef, 0);\n        IERC20(want).safeApprove(unirouter, 0);\n    }\n}",
  "sourcePath": "/home/niko/Documents/pancakeswap_fork_2/syrup/contracts/PANCAKESTRATEGY.sol",
  "compiler": {
    "name": "solc",
    "version": "0.6.12+commit.27d51765.Emscripten.clang"
  },
  "schemaVersion": "3.4.3",
  "updatedAt": "2021-12-30T11:33:51.313Z",
  "devdoc": {
    "kind": "dev",
    "methods": {
      "beforeDeposit()": {
        "details": "Function to synchronize balances before new user deposit. Can be overridden in the strategy."
      },
      "constructor": {
        "details": "Initializes the base strategy.",
        "params": {
          "_beefyFeeRecipient": "address where to send Beefy's fees.",
          "_keeper": "address to use as alternative owner.",
          "_unirouter": "router to use for swaps",
          "_vault": "address of parent vault."
        }
      },
      "owner()": {
        "details": "Returns the address of the current owner."
      },
      "paused()": {
        "details": "Returns true if the contract is paused, and false otherwise."
      },
      "renounceOwnership()": {
        "details": "Leaves the contract without owner. It will not be possible to call `onlyOwner` functions anymore. Can only be called by the current owner. NOTE: Renouncing ownership will leave the contract without an owner, thereby removing any functionality that is only available to the owner."
      },
      "setBeefyFeeRecipient(address)": {
        "details": "Updates beefy fee recipient.",
        "params": {
          "_beefyFeeRecipient": "new beefy fee recipient address."
        }
      },
      "setKeeper(address)": {
        "details": "Updates address of the strat keeper.",
        "params": {
          "_keeper": "new keeper address."
        }
      },
      "setUnirouter(address)": {
        "details": "Updates router that will be used for swaps.",
        "params": {
          "_unirouter": "new unirouter address."
        }
      },
      "setVault(address)": {
        "details": "Updates parent vault.",
        "params": {
          "_vault": "new vault address."
        }
      },
      "transferOwnership(address)": {
        "details": "Transfers ownership of the contract to a new account (`newOwner`). Can only be called by the current owner."
      }
    },
    "stateVariables": {
      "keeper": {
        "details": "Beefy Contracts: {keeper} - Address to manage a few lower risk features of the strat {vault} - Address of the vault that controls the strategy's funds. {unirouter} - Address of exchange to execute swaps."
      }
    },
    "version": 1
  },
  "userdoc": {
    "kind": "user",
    "methods": {},
    "version": 1
  }
}